:100000000C94A7010C94D8010C94D8010C94D8013D
:100010000C94D8010C94D8010C94D8010C94D801FC
:100020000C94D8010C94D8010C94D8010C94D801EC
:100030000C94D8010C94D8010C94D8010C94D801DC
:100040000C94D8010C94D8010C94D8010C94D801CC
:100050000C94D8010C94D8010C94D8010C94A814D9
:100060000C94D8010C941C150C94F2140C94D80127
:100070000C94D8010C94D8010C94D8010C94D8019C
:100080000C94D8010C94D8010C94D8010C94D8018C
:100090000C94D8010C94D8010C94D8010C94D8017C
:1000A0000C94D8010C94D8010C94D8010C94D8016C
:1000B0000C94D8010C94D8010C94D8010C94D8015C
:1000C0000C94D8010C94D8010C94D8010C94D8014C
:1000D0000C94D8010C94D8010C94D8010C94D8013C
:1000E0000C94D8010C9414050C94FA030C941E077C
:1000F0000C9454020C94DC060C94D8130C94E9066E
:100100000C9415070C9443020C946C020C942B076E
:100110000C94AE020C94BE050C9493060C949E04B1
:100120000C940C030C9459060C9473080C940D0752
:100130000C9458020C9491050C944E020C945E029F
:100140000C94A8060C94E5040C94B2040C94C0061C
:100150000C94EA020C94AC020C94D1060C940707A0
:100160000C943F050C9463140C9437060C94C6064B
:100170000C9497040C94C3060C9474020C94E2043F
:100180000C94FD060C9483130C94A1070C94440367
:100190000C9404080C941A140C9470020C945215CC
:1001A0000C947E020C94E2030C943F020C9496048F
:1001B0000C94E1050C942D020C9433070C947A02F4
:1001C0000C94FA040C9428070C94F4060C9461081F
:1001D0000C9494050C948E050C94DF040C94660822
:1001E0000C9447020C9466020C945C060C94710605
:1001F0000C94A9020C9462050C949A040C949D042E
:100200000C94D4130C9462020C94CC040C949103BF
:100210000C94B3060C94D6130C94A5070C942705E4
:100220000C9446060C94DB020C940A070C944B02C7
:100230000C942A050C94FE020C940D060C948B046D
:100240000C9480060C942802F7080000FA080000BD
:10025000FD08000000090000030900004802050035
:1002600000002200250028002B002E003100340061
:1002700002010000050108010B0105050505070540
:1002800008080808020202020A0A08080404040412
:10029000010101010101010103030303030303033E
:1002A000040707070C0C0C0C0C0C0C0C02020202CD
:1002B00006060606060606060B0B0B0B0B0B0B0BB6
:1002C0000102102020080810204010204080020168
:1002D000020108040201010204081020408080404D
:1002E000201008040201800402018040201008044C
:1002F00002010804020101020408102040800102EA
:1003000004081020408000000A0B02090C0D0E08A2
:1003100007030401000000000000000000000000CE
:1003200000000000000000000000000000000000CD
:10033000000012111000000000000000000000008A
:100340000000000000000000000000005215112411
:100350001FBECFEFDFEFDEBFCDBF00E00CBF15E06B
:10036000A0E0B2E0E4E1F9E300E00BBF02C00790D7
:100370000D92A833B107D9F729E0A8E3B5E001C091
:100380001D92A932B207E1F711E0C7EAD1E000E01F
:1003900006C021970109802FFE010E94921AC63AD9
:1003A000D10780E00807A9F70E94CC150C94881C9F
:1003B0000C9400004091540850915508E4E5F7E092
:1003C00081E090E04230510530F4109255081092CF
:1003D00054080895C901218121939C012F5F3F4F4B
:1003E00042175307B9F7909355088093540808951E
:1003F000282F30E0F901EA5FFC4F9491F901E054B5
:10040000FD4F449126583D4FF9012491222309F4D0
:1004100035C0992311F191509231F8F4E92FF0E0B1
:100420008827EA5EFD4F8F4F0C94921A47024B02C9
:1004300028023F0243022D024E02540258025E027D
:10044000620266026C0270022D0274027A027E025F
:10045000809180008F7780938000E22FF0E0EE0F94
:10046000FF1FE05AFD4FA591B4918FB7F894EC911E
:10047000611148C040954E234C938FBF08958091E1
:1004800080008F7DE8CF80918000877FE4CF84B5A6
:100490008F7784BDE2CF84B58F7DFBCF8091B00094
:1004A0008F778093B000D9CF8091B0008F7DF9CF46
:1004B000809190008F7780939000CFCF80919000B3
:1004C0008F7DF9CF80919000877FF5CF8091A0003C
:1004D0008F778093A000C1CF8091A0008F7DF9CF4E
:1004E0008091A000877FF5CF809120018F77809346
:1004F0002001B3CF809120018F7DF9CF8091200121
:10050000877FF5CF4E2BB8CF3FB7F8948091500737
:1005100090915107A0915207B091530726B5A89B1F
:1005200005C02F3F19F00196A11DB11D3FBFBA2F85
:10053000A92F982F8827BC01CD01620F711D811D45
:10054000911D42E0660F771F881F991F4A95D1F7CA
:10055000089581E090E008958A960895AF92BF9241
:10056000CF92DF92EF92FF920F931F93CF93DF937F
:100570006C017B018B01040F151FEB015E01AE18AE
:10058000BF08C017D10759F06991D601ED91FC91D0
:100590000190F081E02DC6011995892B79F7C501ED
:1005A000DF91CF911F910F91FF90EF90DF90CF904F
:1005B000BF90AF900895FC01538D448D252F30E0FE
:1005C000842F90E0821B930B541710F0CF96089560
:1005D00001970895FC01918D828D981761F0A28D8D
:1005E000AE0FBF2FB11D5D968C91928D9F5F9F7353
:1005F000928F90E008958FEF9FEF0895FC01918D09
:10060000828D981731F0828DE80FF11D858D90E075
:1006100008958FEF9FEF0895FC01918D228D892F12
:1006200090E0805C9F4F821B91098F7399270895FA
:1006300086E598E00E940C0321E0892B09F420E074
:10064000822F0895FC01A48DA80FB92FB11DA35AC4
:10065000BF4F2C91848D90E001968F739927848FE2
:10066000A689B7892C93A089B1898C918370806405
:100670008C93938D848D981306C00288F389E02DA6
:1006800080818F7D80830895EF92FF920F931F9357
:10069000CF93DF93EC0181E0888F9B8D8C8D981335
:1006A0001AC0E889F989808185FF15C09FB7F89441
:1006B000EE89FF896083E889F9898081837080648D
:1006C00080839FBF81E090E0DF91CF911F910F91D8
:1006D000FF90EF900895F62E0B8D10E00F5F1F4FE7
:1006E0000F731127E02E8C8D8E110CC00FB607FCF6
:1006F000FACFE889F989808185FFF5CFCE010E9484
:100700002203F1CFEB8DEC0FFD2FF11DE35AFF4FCC
:10071000F0829FB7F8940B8FEA89FB898081806211
:10072000CFCFCF93DF93EC01888D8823B9F0AA89CE
:10073000BB89E889F9898C9185FD03C0808186FD9C
:100740000DC00FB607FCF7CF8C9185FFF2CF8081EB
:1007500085FFEDCFCE010E942203E9CFDF91CF913B
:10076000089580E090E0892B29F00E941803811100
:100770000E94000080E090E0892B49F080E090E04A
:10078000892B29F00E94000081110E94000080E066
:1007900090E0892B49F080E090E0892B29F00E94BD
:1007A000000081110E94000080E090E0892B49F058
:1007B00080E090E0892B29F00E94000081110C94C8
:1007C000000008950895DB01FA0111962C9111970C
:1007D000222361F012963C912181222349F022814B
:1007E0002323FC0120831182128208953C91F4CFCF
:1007F0002081F6CFEF92FF920F931F93CF93DF9359
:10080000CDB7DEB72C970FB6F894DEBF0FBECDBFC5
:100810008C017C018EE0E80EF11CF80187858823AD
:1008200009F469C09089F8018381882309F465C0BF
:100830008481892B8C831D821E82F8018185882307
:1008400009F45DC0828591E0892789831A821B8221
:10085000AE014C5F5F4FBE016F5F7F4FCE010796C9
:100860000E94E3038885882309F44BC08985F80139
:100870009785911101C08687A8014B5F5F4FB70133
:10088000CE0104960E94E303F80184858823D9F100
:1008900095858D818823C9F18E81892B8F83188658
:1008A0001986F8018185882391F1828591E0892755
:1008B00089831A821B82AE01495F5F4FBE016F5F61
:1008C0007F4FCE010A960E94E3038B85882309F1AE
:1008D0008C85F8019485911101C083872C960FB601
:1008E000F894DEBF0FBECDBFDF91CF911F910F9166
:1008F000FF90EF900895968596CF82819ACF80855C
:10090000A2CF8F81B4CF9385C4CF8C81C6CF808591
:10091000CDCF8A85DECFFB01108211821282138235
:10092000FA0110821182128213820895089590E0D4
:1009300080E0089590E080E0089508958FEF94E0BE
:100940000895282F8EE592E0A0E0BB2730E0220F2B
:10095000331F820F931FA11DB11DABBFFC018791F7
:1009600096910895CF93DF9300D01F92CDB7DEB755
:10097000FB014081518162817381FC01248121113D
:1009800004C040835183628373830F900F900F9054
:100990000F90DF91CF910895FC018481882351F05D
:1009A00085819681A781B085FB0180839183A28395
:1009B000B383089580819181A281B381F5CFFC0139
:1009C00014820895FC0114820895CF93DF93FC01F3
:1009D000EB0188819981AA81BB8121E024838583F1
:1009E0009683A783B08780839183A283B383DF91AB
:1009F000CF910895CF93DF9300D01F92CDB7DEB78C
:100A0000FB014081518162817381FC0124812111AC
:100A100004C040835183628373830F900F900F90C3
:100A20000F90DF91CF910895FC018481882351F0CC
:100A300085819681A781B085FB0180839183A28304
:100A4000B383089580819181A281B381F5CFFC01A8
:100A500014820895CF93DF93FC01EB018881998183
:100A6000AA81BB8121E0248385839683A783B087F5
:100A700080839183A283B383DF91CF910895FC019A
:100A8000DB01808581111DC07C9111966C911197BD
:100A900012965C91129713964C91139714963C9171
:100AA000149715962C91159716969C911697179654
:100AB0008C9170836183528343833483258396832F
:100AC00087830895FC01DB0180858823F1F071851F
:100AD00062855385448535852685978580897C93F5
:100AE00011966C93119712965C93129713964C93F0
:100AF000139714963C93149715962C931597169666
:100B00009C93169717968C930895708161815281FA
:100B100043813481258196818781E1CFFC01108654
:100B20000895FC0110860895FC01DB017C9111966B
:100B30006C91119712965C91129713964C911397A2
:100B400014963C91149715962C91159716969C9196
:100B5000169717968C91A1E0A087718762875387BB
:100B60004487358726879787808B7083618352837C
:100B7000438334832583968387830895FC01DB01B7
:100B8000808581111DC07C9111966C9111971296F0
:100B90005C91129713964C91139714963C9114976D
:100BA00015962C91159716969C91169717968C91E1
:100BB0007083618352834383348325839683878341
:100BC0000895FC01DB0180858823F1F07185628541
:100BD0005385448535852685978580897C93119634
:100BE0006C93119712965C93129713964C931397EC
:100BF00014963C93149715962C93159716969C93E0
:100C0000169717968C930895708161815281438164
:100C10003481258196818781E1CFFC01DB017C91C4
:100C200011966C91119712965C91129713964C91B4
:100C3000139714963C91149715962C911597169628
:100C40009C91169717968C91A1E0A0877187628777
:100C500053874487358726879787808B7083618386
:100C60005283438334832583968387830895FC01CD
:100C7000248121110AC0FB0140815181628173816D
:100C8000FC0140835183628373830895FC01848156
:100C9000882351F085819681A781B085FB018083EF
:100CA0009183A283B383089580819181A281B381CE
:100CB000F5CFFC0114820895CF93DF93FC01EB0183
:100CC00088819981AA81BB8121E0248385839683D1
:100CD000A783B08780839183A283B383DF91CF9171
:100CE0000895FC01248121110AC0FB01408151813A
:100CF00062817381FC014083518362837383089511
:100D0000FC018481882351F085819681A781B0857B
:100D1000FB0180839183A283B383089580819181B5
:100D2000A281B381F5CFCF93DF93FC01EB018881E2
:100D30009981AA81BB8121E0248385839683A7833F
:100D4000B08780839183A283B383DF91CF9108958D
:100D5000FC012281211106C0FB0120813181FC01AF
:100D6000318320830895FC018281882331F08381BF
:100D70009481FB0191838083089580819181F9CFD3
:100D8000FC0112820895FC0112820895FC01DB012E
:100D90008D919C9121E0228394838383918380832E
:100DA0000895FC012281211106C0FB0120813181BF
:100DB000FC01318320830895FC018281882331F076
:100DC00083819481FB019183808308958081918147
:100DD000F9CFFC01DB018D919C9121E0228394836A
:100DE0008383918380830895FC012181211104C0B4
:100DF000FB012081FC0120830895FC01818188236F
:100E000021F08281FB01808308958081FBCFFC016A
:100E100011820895FC0111820895FC01DB018C917F
:100E200091E09183828380830895FC0121812111C7
:100E300004C0FB012081FC0120830895FC01818115
:100E4000882321F08281FB01808308958081FBCF7C
:100E5000FC0111820895FC01DB018C9191E09183EA
:100E6000828380830895FC018181882321F082811F
:100E7000FB01808308958081FBCF0F931F9388230C
:100E800039F060E070E080E090E01F910F910895EC
:100E90000EE512E020E033272BBFF80107911691F1
:100EA00060177107B0F48CE592E0A0E0BB27ABBF00
:100EB000FC0187919691660F771F660F771F680F69
:100EC000791FFB0125913491FB0132968491B90180
:100ED000DBCF60E070E0D8CF0E943D07672B59F070
:100EE000853148F499E0899FF0011124E25FFB4FBE
:100EF000808590E0089590E080E008950F931F931F
:100F0000CF938A010E943D07E82FCB010097B1F0F3
:100F1000E531A0F429E0E29FF0011124E25FFB4FEC
:100F2000C085CC2359F00480F581E02DB8011995D6
:100F30008C2F90E0CF911F910F91089590E080E069
:100F4000F9CF9E5FFC0110820895EF92FF920F93FC
:100F50001F93CF93DF93CDB7DEB7CC5FD2400FB6F0
:100F6000F894DEBF0FBECDBFFB0130813F3708F0E4
:100F70003EE7FB01BE016F5F7D4FDB0120E02317E1
:100F800051F0428151814527542745274D935D9368
:100F90002F5F3296F4CF30E0DE01119650E040E052
:100FA0007D014217530748F4FB0101911191BF01E4
:100FB0000D931D934F5F5F4FF4CFD901AA0FBB1F55
:100FC000AE0DBF1D1D921C92DC01BE5F41E04C9333
:100FD000C150DE4F39832883CF5FD140119680E026
:100FE00092E0F70101900D920197E1F7C450DD4FB7
:100FF0000FB6F894DEBF0FBECDBFDF91CF911F912A
:101000000F91FF90EF900895EF92FF920F931F932F
:10101000CF93DF93CDB7DEB7CC5FD2400FB6F89455
:10102000DEBF0FBECDBFFB0130813F3708F03EE78A
:10103000FB01BE016F5F7D4FDB0120E0231751F004
:10104000428151814527542745274D935D932F5F5A
:101050003296F4CF30E0DE01119650E040E07D01A1
:101060004217530748F4FB0101911191BF010D9301
:101070001D934F5F5F4FF4CFA901440F551F4E0DD5
:101080005F1DFA0111821082C150DE4F398328831F
:10109000CF5FD14020E032E0F701DC0101900D92FA
:1010A00021503040D9F7C450DD4F0FB6F894DEBF61
:1010B0000FBECDBFDF91CF911F910F91FF90EF90A9
:1010C00008958F5F9E4FFC0110820895FC012181DD
:1010D000211108C021E0FB013081311101C020E065
:1010E000FC0120830895FC0181E0DB019C919111BA
:1010F00001C080E091E091838283808308952091F4
:101100005407209530E0F901E25FFC4F9081909503
:10111000225F3D4FD9018C9140913C0550913D0596
:1011200042505109E4E5F7E031969F0124553740DC
:101130002417350770F420819227292F30E0D90138
:10114000A25FBC4F9C919827225F3D4FD9018C91A3
:10115000EBCF089523E030E030933D0520933C052C
:10116000E4E5F7E090911D079083805881836283C6
:1011700008950F931F93582F577001E010E020E05F
:1011800030E004C0000F111F221F331F5A95D2F701
:1011900023E0969587952A95E1F79927E09127070F
:1011A000F0912807662321F0E0912D07F0912E079A
:1011B000E80FF91F8081442329F0082B00831F9139
:1011C0000F91089500950823F9CF2F923F924F92E7
:1011D0005F926F927F928F929F92AF92BF92CF92C7
:1011E000DF92EF92FF920F931F93CF93DF93CDB7D0
:1011F000DEB7C655D1090FB6F894DEBF0FBECDBF1E
:1012000010E000E0F801EE0FFF1FE355F94F0190E9
:10121000F081E02D309749F041E08081811101C0DB
:1012200040E060E0C8010E94B9080F5F1F4F08331B
:10123000110541F7E0901E07F0901F072DE636E0FC
:101240002D963FAF2EAF2D978701005C1F4FF70102
:10125000D9018D919D919D01009729F0DC018D911F
:101260009C919183808332960E171F0789F7D12CAA
:10127000C12CF601EE0FFF1FE350FA4F0190F081F1
:10128000E02D309749F041E08081811101C040E0BC
:1012900061E0C6010E94B908BFEFCB1ADB0AE8E3A0
:1012A000CE16D10431F74DEB55E0E0912A07F091CD
:1012B0002B079F01205C3F4FDA018D919D91AD017D
:1012C000009729F0DC018D919C9191838083329667
:1012D000E217F30789F7E5E9F5E02F96FFAFEEAFE8
:1012E0002F97F80128E6E20EF11C25E935E0D90137
:1012F0008D919D919D01009729F0DC018D919C912C
:10130000918380833296EE16FF0689F7EDE6F5E0CD
:101310006196FFAFEEAF6197E0912107F091220750
:101320009F01205B3F4F0DE615E0D8018D919D9107
:101330008D01009749F0DC014D915D916D917C919B
:1013400040835183628373833496E217F30769F70E
:10135000E5E4F5E02B96FFAFEEAF2B97E091240785
:10136000F09125079F0120563F4F85E495E0DC0171
:10137000CD90DD90CD01C114D104F1F0D601EC90F7
:101380001196FC90119712960C91129713961C913E
:10139000139714967C91149715966C911597169641
:1013A0005C91169717964C91E082F1820283138329
:1013B000748365835683478338962E173F07B9F6A3
:1013C0008091430590914405DC01ED91FC910084EE
:1013D000F185E02D199518161906B4F58091540879
:1013E000909155088F3F910509F070F58091430564
:1013F00090914405DC01ED91FC910284F385E02D90
:1014000019952091540830915508A9014F5F5F4FFD
:1014100050935508409354082C5A384FF901808353
:101420002FB7F89480914C0790914D07A0914E07EB
:10143000B0914F072FBF8093380590933905A09343
:101440003A05B0933B05BCCF4091540850915508E4
:101450004115510509F466C09091540780911D070C
:10146000981719F00E94DA01EFCF4230510508F4C5
:1014700061C18091550764E0862E912CA12CB12C7E
:10148000813409F168F4813030F08730B8F08F5042
:10149000823008F419C188248A94982C540113C00E
:1014A000E9E08E2E912CA12CB12C833461F008F44C
:1014B0002FC1843409F416C1853469F7F8E08F2E02
:1014C000912CA12CB12C61E086169606A104B104E2
:1014D00048F681149104A104B10429F0840148154F
:1014E000590508F02BC12FB7F89480914C079091C3
:1014F0004D07A0914E07B0914F072FBF409138057F
:101500005091390560913A0570913B05841B950B0C
:10151000A60BB70B0997A105B10520F0109255084D
:1015200010925408409127075091280730E020E09E
:10153000F901EE0FFF1FE355F94F0190F081E02D07
:10154000309799F0D90183E0B695A7958A95E1F790
:10155000A40FB51F8C9190E0622F677002C0959523
:1015600087956A95E2F7817080832F5F3F4F28331C
:101570003105F1F680911E0790911F07BC01605C58
:101580007F4FDC012D96EEADFFAD2D97219131916E
:101590002D96FFAFEEAF2D972115310531F04D910E
:1015A0005C911197F9015183408312966A177B076A
:1015B00049F7FB0188599F4F2F96AEADBFAD2F97CE
:1015C0004D915D912F96BFAFAEAF2F97411551054D
:1015D00029F020813181DA012D933C9332968E17C8
:1015E0009F0751F7E0912107F0912207CF01805B1F
:1015F0009F4F6196AEADBFAD61972D913D916196C4
:10160000BFAFAEAF61972115310551F040815181D7
:1016100062817381D9014D935D936D937C93139790
:1016200034968E179F0729F7E0912407F09125073C
:10163000CF0180569F4F2B96AEADBFAD2B97ED904F
:10164000FD902B96BFAFAEAF2B97E114F104F1F0F4
:1016500000811181728163815481458136812781A6
:10166000D7010C9311961C93119712967C931297A5
:1016700013966C93139714965C93149715964C934A
:10168000159716963C93169717962C9338968E17A7
:101690009F0789F6CA5ADF4F0FB6F894DEBF0FBE18
:1016A000CDBFDF91CF911F910F91FF90EF90DF9011
:1016B000CF90BF90AF909F908F907F906F905F90F2
:1016C0004F903F902F9008954730510598F18090AA
:1016D0005A07912CB12CA12CF9E08F0E911CA11C62
:1016E000B11CF1CE4430510528F1209156073091BC
:1016F0005707322723273227A3E0B0E00E949A1A27
:101700004B015C0126E0820E911CA11CB11CDBCEBA
:101710004830510578F080905A0790905B079824E4
:1017200089249824B12CA12C3AE0830E911CA11C91
:10173000B11CC9CE812C912C5401C5CED090550737
:101740008FEB8D0D853000F190923D0580923C0528
:101750000E947F08B501A401425051096109710935
:101760004C5A584FDA012C91B1E08B1A9108A1081C
:10177000B108F401EC5AF84F308123273227232790
:101780002817390709F06ECE0250110910933D0554
:1017900000933C05609056077090570776246724A5
:1017A0007624809156070091580710915907102709
:1017B00001271027E0905707F0905807FE24EF24E8
:1017C000FE24C0905907EFE0DE1609F4A9C5ED1517
:1017D000D8F1F3E0DF1609F492C1FD1568F021E0BD
:1017E000D21609F426C432E0D31609F4ACC461E081
:1017F00070E08D2D90E025C045E0D41609F471C548
:10180000D41608F429C556E0D512F1CF209120074F
:101810008091230790E0880F991FE22FF0E08E0F50
:101820009F1F40912607B4E04B9FA0011124480F51
:10183000591F6416750608F455C062E070E086E032
:1018400090E00E94AA085BC062E4D61609F408C7BB
:101850006D15E8F070E1D71609F474C281E4D8126E
:10186000C6CFD092550781E0809356078EE78093CC
:10187000570780E00E94A10490935807809359076E
:1018800086E090E090933D0580933C0538C094E459
:10189000D91609F46CC6D91608F4F7C5A5E4DA120E
:1018A000A6CFD09255078EE78093560781E2E7E0F6
:1018B000F5E09E012F5F3F4FD90101900D928A956F
:1018C000E1F7A7E5B7E0A901CA01821B930BFA0172
:1018D0006191AF01FD01E455F740662309F408C7A3
:1018E0006D93F2CF6E167F06D8F4660C771CE091EC
:1018F0001E07F0911F07E60DF71D118300838091ED
:101900003C0590913D0502968130914008F466C5F2
:101910008091550764E070E090E00E94AA085EC5DF
:1019200068167906F0F5A80170E060E08091210763
:101930009091220760FC1CC093012E1B3F0BF90104
:10194000EE0FFF1FEC7FF370E80FF91F808191818C
:10195000A281B381AA27BB27BA0155274427842B2C
:10196000952BA62BB72B80839183A283B383C7CFFC
:10197000E095F095E60DF71DEE0FFF1FEC7FF3707D
:10198000E80FF91F0081118122813381002711277F
:10199000042B152B262B372B0083118322833383B3
:1019A000AECF9301237033274801B12CA12CC12C59
:1019B000D12C7601E0912407F091250721153105FE
:1019C00049F5681A790A660C771C38EF632237E00C
:1019D0007322E60DF71D5080618072801381B481FF
:1019E000A581940140E050E060E070E080E090E08C
:1019F00000E30E94081B25292083632A6182742A40
:101A00007282152B1383B62BB483A72BA5838683F1
:101A1000978375CF2130310541F54FEF641A740A71
:101A2000681A790A660C771C58EF652257E0752210
:101A3000E60DF71D5080618072801381B681A78109
:101A40009401A501B601C70100E20E94081B522AB9
:101A50005082632A6182742A7282152B13836483F5
:101A600075838B2B86839A2BD3CF2230310529F5B2
:101A700062E0660E711C681A790A660C771C78EFB2
:101A8000672277E07722E60DF71D50806180748031
:101A90001581B681A7819401A501B601C70100E1B6
:101AA0000E94081B522A5082632A61824283538318
:101AB000762A7482172B1583D4CFA3E06A0E711C8B
:101AC000681A790A660C771CB8EF6B22B7E07B22A4
:101AD000E60DF71D528143813481258196818781EE
:101AE000808291825A2952834B2943833C29348333
:101AF0002D2925839E2996838F29878300CFC801AE
:101B0000019763E070E08D379105C8F44301800EC2
:101B1000911E20912007E0912307F0E0EE0FFF1FB8
:101B2000E20FF11D8091260734E0839FC00111244C
:101B30008E0F9F1F8816990628F062E070E083E000
:101B400090E07FCE000F111F0D5F1F4F10933D05DA
:101B500000933C0534E5E32E37E0F32ED7011196D0
:101B6000CD01845597408017910710F41C92F7CF50
:101B700083E080935507035000935607C0902407D5
:101B8000D0902507A0902107B0902207A0911E07B2
:101B9000B0911F07BEAFADAFA22FB0E02796BFAF89
:101BA000AEAF279783E090E01C012E1A3F0A2D016B
:101BB000409450948614970409F4A1CE2796AEADB4
:101BC000BFAD27976A167B0660F49301220F331F7F
:101BD000ADADBEAD2A0F3B1FD9018C9111963C9142
:101BE0001CC06E167F0680F560FC24C0C3012796DA
:101BF000AEADBFAD27978A1B9B0B880F991F8C7FBB
:101C000093708A0D9B1DDC014D915D916D917C91CE
:101C1000AB0166277727842F352FD70113963C9386
:101C2000139714968C93B2E0EB0EF11C2FEF621A0F
:101C3000720AC0CF9201260D371D220F331F2C7F51
:101C400033702A0D3B1DC8CF830103701127011586
:101C5000110521F583010E1B1F0B000F111F087FBB
:101C600017700C0D1D1DD8012C9111963C911197E8
:101C700012964C91129713965C91139714966C914F
:101C8000149715967C91159716968C911697179622
:101C90009C9100E30E94231B822FBFCF01301105CE
:101CA00011F50E1B1F0B060D171D000F111F087FCE
:101CB00017700C0D1D1DD8012C9111963C91119798
:101CC00012964C91129713965C91139714966C91FF
:101CD000149715967C91159716968C9116971796D2
:101CE0009C9100E2D7CF0230110511F50E1B1F0B9E
:101CF000060D171D000F111F087F17700C0D1D1DFD
:101D0000D8012C9111963C91119712964C911297F3
:101D100013965C91139714966C91149715967C9179
:101D2000159716968C91169717969C9100E1B2CF55
:101D30009101260D371D220F331F287F37702C0D80
:101D40003D1D4ACFC80101978B37910540F4209182
:101D50005A07C801880F991F2817190629F063E050
:101D600070E080E190E06DCDD301A00FB11F279608
:101D7000BFAFAEAF279720902007A0912307B0E018
:101D8000AA0FBB1F312CA20DB31D80912607E4E0E2
:101D90008E9FC00111248A0F9B1F2796EEADFFADC9
:101DA0002797E817F90718F062E070E0DACF86E0CD
:101DB00090E090933D0580933C05D092550770923A
:101DC0005607609257071092580700935907E09002
:101DD0002407F0902507E0912107F091220729962A
:101DE000FFAFEEAF2997E0911E07F0911F076396B2
:101DF000FFAFEEAF639724E5422E27E0522E83E03B
:101E000090E0FC01EA1BFB0B6596FFAFEEAF659718
:101E1000F101E095F0956796FFAFEEAF67972796D3
:101E2000EEADFFAD27976E167F0609F4D7C2F2011B
:101E300047818085142F082F6214730490F4F301F6
:101E4000EE0FFF1F63962EAD3FAD6397E20FF31FBA
:101E5000118300835FEF651A750A62E0460E511C1C
:101E6000DECF6A167B06D8F5A80170E060E060FC62
:101E70001FC0F301E219F309EE0FFF1FEC7FF370AF
:101E800029968EAD9FAD2997E80FF91F008111812A
:101E90002281338122273327BA0155274427402B3B
:101EA000512B622B732B4083518362837383D2CF78
:101EB0006796EEADFFAD6797E60DF71DEE0FFF1FBE
:101EC000EC7FF37029962EAD3FAD2997E20FF31FFB
:101ED000008111812281338100271127E0CFF30196
:101EE000E370FF27980150E040E060E070E0CB0134
:101EF0002DAF3EAF4FAF21965FAF219722966FAFC8
:101F0000229723967FAF239724968FAF2497259609
:101F10009FAF2597309739F5F301EA1BFB0BEE0FC6
:101F2000FF1FE87FF770EE0DFF1D9080A180B2804B
:101F3000C380D480158140E050E060E070E080E034
:101F400090E000E30E94081B292920833A2931836D
:101F50004B2942835C295383D62AD482172B1583BD
:101F60008683978377CFE130F10549F5EA1BFB0BB8
:101F7000E60DF71DEE0FFF1FE87FF770EE0DFF1D5A
:101F80009080A180B280C380D68017812DAD3EADF8
:101F900040E050E060E070E080E090E000E20E940D
:101FA000081B292920833A2931834B294283C52ADA
:101FB000C382648375838D298683912BD2CFE230CF
:101FC000F10531F5EA1BFB0BE60DF71DEE0FFF1FC8
:101FD000E87FF770EE0DFF1D9080A180B480C58072
:101FE000D68017812DAD3EAD40E050E060E070E05E
:101FF00080E090E000E10E94081B292920833A2913
:10200000318342835383B62AB482C72AC582D3CF91
:102010006596EEADFFAD6597E60DF71DEE0FFF1F60
:10202000E87FF770EE0DFF1D3DAD30834EAD41836F
:1020300011CFC8010197803D974028F063E070E020
:1020400081E090E0FECB20912907C301800F911F12
:1020500062E070E02817190698F3C80123E096950E
:1020600087952A95E1F7980127703327232B91F460
:10207000039690933D0580933C0580913C0590919B
:102080003D05E4E5F7E08130A1E09A0728F064E03F
:1020900070E0D6CF0496EDCF31969F01245537409E
:1020A0002817390710F41082F7CF91E09093550765
:1020B000835080935607A0902707B090280770E0C0
:1020C00060E020E0C12CD12C7601C39416012701D9
:1020D000022E04C0220C331C441C551C0A94D2F757
:1020E000FB0143E0F695E7954A95E1F7E95AF84F89
:1020F0003081A301A3E056954795AA95E1F74F716A
:1021000055274A0D5B1DDA014C9150E0B62DB77092
:1021100002C055954795BA95E2F7822D40FF0FC052
:10212000832B80832F5F283009F420E0EFEF6E1AB5
:102130007E0A6F5F7F4F0617170741F6E0CB809549
:1021400038233083EFCFC801019763E070E0803D12
:10215000974030F520912F07C301800F911F62E057
:1021600070E028171906E0F0C80133E096958795CE
:102170003A95E1F7980127703327232BA1F40396B2
:1021800090933D0580933C0580913C0590913D05E1
:10219000E4E5F7E0813021E0920738F064E070E098
:1021A00082E090E04ECB0496EBCF31969F01245510
:1021B00037402817390710F41082F7CF92E0909338
:1021C000550783508093560760912D0770912E0715
:1021D00050E040E0B12CC12CD12C7601C394160103
:1021E00027010B2C04C0220C331C441C551C0A94E0
:1021F000D2F7FA0183E0F695E7958A95E1F7E95A77
:10220000F84FA080930193E0369527959A95E1F7D2
:10221000260F372F311DD9012C9130E0B62DB77024
:1022200002C035952795BA95E2F7822D20FF10C0A0
:102230008A298083B394E8E0BE1201C0B12CFFEF7D
:102240006F1A7F0A4F5F5F4F0417150741F657CB90
:102250008095A822A082EECFC801019763E070E0CC
:102260008D37910550F420912C07C301800F911FE9
:102270002817190628F462E070E084E090E0E1CAD3
:10228000C801880F991F039690933D0580933C05E4
:10229000E4E5F7E0DF0111969D012455374028174A
:1022A000390710F41C92F7CF94E0909355078350B0
:1022B00080935607660C771CA0912A07B0912B07D4
:1022C000A60DB71D0150110932960F3F100709F4F2
:1022D00016CB8C9111969C911197129691838283C3
:1022E000F1CF01153FEF130729F063E070E001150E
:1022F000110549F4809129078150990B861597059E
:1023000028F462E070E085E090E09BCA41E00115AE
:102310001F4F09F040E060E0C3010E94B908EFCA16
:102320009801E3E036952795EA95E1F7822FA80119
:1023300047705527452B11F081E0820F98012150FD
:102340003109203B374020F490915A07981729F023
:1023500063E070E08FE090E074CA20912907C30128
:10236000800F911F2817190618F462E070E0F2CF71
:1023700086E090E090933D0580933C058FE080934C
:1023800055077092560760925707109358070093AD
:102390005907F12CE12CD12CF70173E0F695E79564
:1023A0007A95E1F7EC5AF84F478150E00D2C02C0C6
:1023B000559547950A94E2F7417060E0C3018E0D90
:1023C0009F1D0E94B908D39478E0D71201C0D12C88
:1023D0008FEFE81AF80A0E151F05F1F600913C057B
:1023E00010913D05780122E0E20EF11CF0923D05CE
:1023F000E0923C050E947F08F801EC5AF84F908368
:1024000081838091420587FD11C061E00E94F8013F
:1024100080913E0590913F058230910538F0880FFC
:10242000991F880F991F05970197F1F78091430530
:1024300090914405DC01ED91FC910280F381E02D47
:10244000A70164E577E019958091430590914405D3
:10245000DC01ED91FC910680F781E02D19958091CA
:102460003E0590913F058230910538F0880F991F05
:10247000880F991F05970197F1F78091420587FD15
:102480004DC860E00E94F80149C8811165C0C09044
:102490005907D0905A070E94A104009709F45CC024
:1024A000E816F90608F058C0DC24CD24DC24C81650
:1024B000D90608F051C0CE14DF0408F44DC057010E
:1024C0006FE5862E67E0962E10E000E0B50180E013
:1024D0000E946C079C01200F311F255F3F4F213068
:1024E000314098F4892B59F0A401B50180E00E9495
:1024F0007E07009721F0880E991E080F191FC5014D
:1025000001967501C816D90628F5C8010B96909357
:102510003D0580933C0583E4809355078EE78093C7
:102520005607F0925707E092580780913A0790912A
:102530003B0720913C0730913D073093590720938A
:102540005A0790935B0780935C0710935D07009395
:102550005E07D5C95C01BACF83E090E090933D055A
:1025600080933C0583E48093550781E876C0B5E10C
:102570006B16710408F068C0C301880F991F860D9F
:10258000971DA8E5B7E08E010F5F1F4FF8019F016F
:10259000201B310B2817390718F42D912193F7CF01
:1025A000B12CA12C512CD12CC12C4BE0E42EF12CC0
:1025B0006A147B0431F1F801408081808281982C7B
:1025C000882EB401842D0E946C07009791F08E0D27
:1025D0009F1D81309140A8F4A7014C5A584FB40177
:1025E000842D0E947E07009721F0E80EF91EC80E88
:1025F000D91E0D5F1F4F5A2C95012F5F3F4F590178
:10260000D7CFF0923D05E0923C0584E480935507D6
:102610008EE7809356071092570750925807809183
:102620003A0790913B0720913C0730913D0730934A
:10263000590720935A0790935B0780935C07D092C9
:102640005D07C0925E075BC983E090E090933D0513
:1026500080933C05D092550782E8809356074FC976
:1026600000915A0710915B07102701271027093F97
:10267000110548F083E090E090933D0580933C0580
:10268000D092550772CFB7010E943D07282FCB018A
:10269000009751F1253140F530E049E0429FF001CB
:1026A000439FF00D1124E25FFB4FCC20C1F0208549
:1026B0002223E1F02017110609F0C0F40190F08107
:1026C000E02D6CE577E019958EE723E030E030935C
:1026D0003D0520933C0592E490935507BECF0280C0
:1026E000F381E02D1995F0CF81E8EFCF82E8EDCFAF
:1026F000EC5AF84F2DEA2083FC01EC5AF84F2EEDEE
:1027000024830596BFC80F931F93CF93DF938B014C
:10271000FC01FE5F2081222351F19C012F5F3D4F80
:1027200022503E4FD9012D913C912F37310510F0A9
:102730002EE730E0622FE80128834081442311F026
:102740008F5F9D4FFC01D80180E0861790F4908147
:10275000329611969C931197AF0142505109EA01AC
:10276000998112969C9312978F5F1296EECF9C01DF
:10277000D7CF220F331F2F5F3F4F2D3F310579F009
:102780004DEF50E0421B530B70E060E0C801820F38
:10279000931FDF91CF911F910F910C94811CDF91BA
:1027A000CF911F910F9108950C94EF1B0C94EF1B88
:1027B0000F931F93CF93DF93CDB7DEB7C150D140B6
:1027C0000FB6F894DEBF0FBECDBF8C01FB01408178
:1027D0004F3708F04EE750E0C050DF4F5983488331
:1027E000C050D1406F5F7F4FCE0101960E94781C90
:1027F000C050DF4FE881F981C050D14081E090E0C6
:102800008C0F9D1FE80FF91F108281E091E0FE01FF
:102810003196D80101900D920197E1F7CF5FDE4F1D
:102820000FB6F894DEBF0FBECDBFDF91CF911F91E1
:102830000F9108950F931F93CF93DF93CDB7DEB71A
:10284000C150D1400FB6F894DEBF0FBECDBF8C0192
:10285000FB0140814F3708F04EE750E0C050DF4F9A
:1028600059834883C050D1406F5F7F4FCE0101969E
:102870000E94781CC050DF4FE881F981C050D140E0
:1028800081E090E08C0F9D1FE80FF91F1082F80186
:10289000EF5FFE4F81E08083D801AE5FBE4F81E0E5
:1028A00091E0FE01319601900D920197E1F7CF5F23
:1028B000DE4F0FB6F894DEBF0FBECDBFDF91CF91D4
:1028C0001F910F910895FF920F931F93CF93DF9362
:1028D0008B01FC01EF5FFE4F2081222319F19C0147
:1028E0002E5F3E4F21503F4FD901CD91DC91CF3724
:1028F000D10510F0CEE7D0E0FC2ED801CC93C11169
:1029000013C04EE750E04C1B5D0BCE01019670E00A
:1029100060E0800F911FDF91CF911F910F91FF9089
:102920000C94811C9C01DECF2081BC01222311F07C
:102930006E5F7E4FAE01C80101960E94781C8EE743
:10294000F812DFCFDF91CF911F910F91FF90089583
:102950001F920F920FB60F9211242F933F938F93D4
:102960009F93AF93BF9380914C0790914D07A09197
:102970004E07B0914F0730914B0723E0230F2D37BF
:1029800058F50196A11DB11D20934B0780934C076C
:1029900090934D07A0934E07B0934F078091500737
:1029A00090915107A0915207B09153070196A11D34
:1029B000B11D8093500790935107A0935207B09395
:1029C0005307BF91AF919F918F913F912F910F909E
:1029D0000FBE0F901F90189526E8230F0296A11D99
:1029E000B11DD2CF1F920F920FB60F9211240BB6CA
:1029F0000F922F933F934F935F936F937F938F9398
:102A00009F93AF93BF93EF93FF9386E598E00E9467
:102A10002203FF91EF91BF91AF919F918F917F9191
:102A20006F915F914F913F912F910F900BBE0F903F
:102A30000FBE0F901F9018951F920F920FB60F9216
:102A400011240BB60F922F938F939F93EF93FF93C5
:102A5000E0916608F09167088081E0916C08F09140
:102A60006D0882FD1DC0908180916F088F5F8F730C
:102A700020917008821741F0E0916F08F0E0EA5A67
:102A8000F74F958F80936F08FF91EF919F918F91F2
:102A90002F910F900BBE0F900FBE0F901F901895A7
:102AA0008081F2CFE6E5F8E01382128288EE93E0AF
:102AB000A0E0B0E084839583A683B7838FEC94E095
:102AC0009183808385EC90E09587848784EC90E007
:102AD0009787868780EC90E0918B808B81EC90E0EB
:102AE000938B828B82EC90E0958B848B86EC90E0CC
:102AF000978B868B118E128E138E148EE3EFF8E077
:102B000085EF94E09183808381EE94E093838283C8
:102B100014821582168217821086118612861386F9
:102B20001486158616861786108A118A128A81E005
:102B3000838B148A158A25EF38E031A720A728E275
:102B400035E0378B268B108E9DE2918F91E3928F2B
:102B5000838F148E158E168E178E81E090E0A0E084
:102B6000B0E080A391A3A2A3B3A38BE199E095A3C6
:102B700084A381E090E097A386A32EE235E033A7FB
:102B800022A723E335E035A724A729E039E037A7BA
:102B900026A791AB80AB0895CF93DF93CDB7DEB777
:102BA00064970FB6F894DEBF0FBECDBF789484B59E
:102BB000826084BD84B5816084BD85B5826085BD39
:102BC00085B5816085BD80916E00816080936E00C7
:102BD00010928100809181008260809381008091B9
:102BE000810081608093810080918000816080936A
:102BF00080008091B10084608093B1008091B0002A
:102C000081608093B00080919100826080939100F8
:102C1000809191008160809391008091900081600B
:102C2000809390008091A10082608093A1008091A8
:102C3000A10081608093A1008091A00081608093B9
:102C4000A000809121018260809321018091210167
:102C50008160809321018091200181608093200117
:102C600080917A00846080937A0080917A008260FB
:102C700080937A0080917A00816080937A008091BD
:102C80007A00806880937A001092C1002091230915
:102C9000309124093A8B298B809121099091220946
:102CA0009C8B8B8B9A8389831A861986312C212CD5
:102CB000712C812C912C1B821C82612C512C412C5B
:102CC000A989BA89E985FA85AE17BF0709F490C0CA
:102CD000A981BA8150968D919C915197280E391EE9
:102CE0001296DC9012971396EC9013971496FC9022
:102CF000149715960C91159716961C911697179682
:102D0000BC91E981FA81C084B1842D2D3E2D4F2DD7
:102D1000502F612F7B2F8C2D9B2DA0E00E94471BF5
:102D200009F054F4D12C6DE2E62E71E3F72E01E0A8
:102D300010E0B0E0C12CB12CDD82EF82FB860C8765
:102D40001D87BE87CF86B88A272D382D492D5B81F8
:102D50006C81762D852D942DA0E00E94471B51F1AA
:102D6000AD80BF80CB84DC84ED84FE840F85188920
:102D7000272D382D492D5B816C81762D852D942D45
:102D80000E94A91AD22EE32EF42E052F162FB72F4C
:102D9000F82FE92F7A2C8B2C9C2C2C852B833D85AE
:102DA0003C836E845F8448882D2D3E2DA0E00E94D8
:102DB000471BA9F489859A8501969A878987A981F5
:102DC000BA815296BA83A9837D808F809B84BC850B
:102DD000BB83ED85EC836E845F84488871CFDD8290
:102DE000EF82FB860C871D87BE87FF87E88BB8CFF5
:102DF000272D382D492D5B816C81762D852D942DC5
:102E0000A0E00E94471B59F4712C4DE2842E51E33F
:102E1000952EF1E0FB831C82612C512C412C709289
:102E2000000280920102909202022B812093030201
:102E30003C81309304026092050250920602409257
:102E40000702211480E4380608F0A3C0C101880FEE
:102E5000991F009709F4A0C00E94531B9E838D8385
:102E60009093390780933807211490E2390608F0CF
:102E700096C0C101880F991F880F991F009709F408
:102E800091C00E94531B98878F8390933F07809334
:102E90003E0730924107209240071A821982312C56
:102EA000212CA985BA85E981FA81AE17BF0709F4FB
:102EB00089C0AB89BC891296DC9012971396EC906E
:102EC00013971496FC90149715960C9115971696D7
:102ED0001C9116971796BC91EB89FC89C084B1842C
:102EE0002D2D3E2D4F2D502F612F7B2F8C2D9B2D67
:102EF000A0E00E94471B09F044F4272D382D492DEE
:102F00005B816C81762D852D942DA72CB82CC92C36
:102F1000DB80EC80F62C052D142D0E94AB1AB22E0E
:102F2000A32E742F652FAB89BC8950964D915C916F
:102F30008A01000F111F7101EE0CFF1C6101CC0C06
:102F4000DD1CCC0CDD1C90E080E00817190769F14E
:102F5000AB89BC891E96ED91FC91E80FF91F208189
:102F60003181F701E80FF91FAD81BE81EA0FFB1F28
:102F700031832083FC01EE0FFF1FEC0DFD1D2F811F
:102F80003885E20FF31FB082A182728363830296B9
:102F9000DCCF8FEF9FEF60CF81E090E05DCF8FEFD0
:102FA0009FEF6FCF81E090E06CCF240E351E8981BA
:102FB0009A8101969A838983AB89BC895296BC8B8E
:102FC000AB8B6FCFE0916608F091670882E0808359
:102FD000E0916208F09163081082E0916408F0913A
:102FE000650880E1808310926E08E0916A08F09194
:102FF0006B0886E08083E0916808F0916908808121
:1030000080618083E0916808F09169088081886020
:103010008083E0916808F0916908808180688083EE
:10302000E0916808F091690880818F7D808386E552
:1030300098E090934405809343058FEF8093420579
:103040008EEE92E0909341058093400581E49AE0F2
:1030500090933F0580933E0581E080931D0784E3B4
:103060008093200784E1809323078093260788E3D9
:103070008093290790E290932C0780932F0787E095
:1030800090E00E94531B9093280780932707009796
:1030900009F451C017E0FC01212F11922A95E9F79C
:1030A00088E690E00E94531B90931F0780931E07B1
:1030B000009709F440C028E6DC011D922A95E9F743
:1030C00080E590E00E94531B909322078093210794
:1030D000009789F120E5FC0111922A95E9F780EA31
:1030E00090E00E94531B909325078093240700973C
:1030F00011F120EADC011D922A95E9F787E090E0C2
:103100000E94531B90932E0780932D07009799F0F0
:10311000FC0111921A95E9F780E490E00E94531B9C
:1031200090932B0780932A07009729F020E4DC0175
:103130001D922A95E9F710E000E0C801880F991F59
:10314000FC01E355F94F7F0180819181892B49F47E
:1031500081E090E00E94531BD7018D939C93FC016A
:1031600010820F5F1F4F0833110539F700911E07BA
:1031700010911F07EDE6F6E090E080E0219131919B
:10318000232B39F4DF0112979801280F391F2D9353
:103190003C9302968034910589F7D12CC12CC6014D
:1031A000880F991F9C0123503A4F7901D9018D91C5
:1031B0009C91892B49F481E090E00E94531BF70118
:1031C00091838083DC011C92BFEFCB1ADB0AE8E31A
:1031D000CE16D10421F720912A0730912B07EDEB71
:1031E000F5E090E080E041915191452B39F4DF0109
:1031F0001297A901480F591F4D935C930296803492
:10320000910589F7E5E9F5E090E080E0005C1F4F6B
:1032100021913191232B39F4DF0112979801280F66
:10322000391F2D933C9302968832910589F740917E
:10323000210750912207EDE6F5E090E080E0219132
:103240003191232B59F4DF0112979C01220F331F78
:10325000220F331F240F351F2D933C930196843189
:10326000910569F74091240750912507E5E4F5E0C1
:1032700090E080E021913191232B61F4DF011297DE
:103280009C0163E0220F331F6A95E1F7240F351F7D
:103290002D933C9301968431910561F748EEA42E5D
:1032A00053E0B52EC12CD12CE12CF12C00E010E024
:1032B000272D382D492D5B816C81762D852D942D00
:1032C0000E94AB1A2093430730934407409345076D
:1032D000509346070E948402609347077093480703
:1032E0008093490790934A07992493940E948402FB
:1032F00000914707109148072091490730914A07EC
:10330000601B710B820B930B0091430710914407D4
:103310002091450730914607601771078207930790
:1033200008F4C5C01A821982809140079091410724
:1033300029813A8128173907D8F5E0913E07F091A5
:103340003F07C901880F991F880F991FE80FF91FC0
:10335000208131814281538121153105410551057B
:1033600071F060913A0770913B0780913C07909112
:103370003D070E94701A672B682B692B99F4E09126
:103380003807F091390789819A81880F991FE80FD2
:10339000F91F80819181DC01ED91FC910480F58120
:1033A000E02D1995E981FA813196FA83E983BCCF42
:1033B00080913A0790913B07A0913C07B0913D075F
:1033C0000196A11DB11D80933A0790933B07A093EE
:1033D0003C07B0933D072091300730913107409171
:1033E000320750913307609134077091350780910F
:1033F000360790913707A0900002B0900102C0906C
:103400000202D0900302E0900402F09005020091C5
:103410000602109107020E943E1B20933007309352
:10342000310740933207509333076093340770930A
:10343000350780933607909337070E94E5088091FF
:103440004207811118C0909242070E9484020091A5
:103450004307109144072091450730914607601BB0
:10346000710B820B930B609347077093480780930F
:10347000490790934A078091470790914807A09188
:103480004907B0914A074091430750914407609122
:10349000450770914607840F951FA61FB71F80939D
:1034A000470790934807A0934907B0934A070E94A3
:1034B00084020091470710914807209149073091F5
:1034C0004A07601B710B820B930B603177428105B9
:1034D000910510F00E94E50888950E94B10306CF7F
:1034E000A1E21A2EAA1BBB1BFD010DC0AA1FBB1F08
:1034F000EE1FFF1FA217B307E407F50720F0A21B7A
:10350000B30BE40BF50B661F771F881F991F1A94E6
:1035100069F760957095809590959B01AC01BD0110
:10352000CF010895EE0FFF1F881F8BBF0790F69104
:10353000E02D1994A29FB001B39FC001A39F700D0D
:10354000811D1124911DB29F700D811D1124911DAB
:103550000895689401C0E8948F929F92CF93DF936F
:103560000E94B71ADF91CF919F908F900895882481
:103570009924F401E401B0E49F93AA279A158B04DF
:103580009C04ED05FE05CF05D007A10798F4AD2FEB
:10359000DC2FCF2FFE2FE92D982C892E982F872FE7
:1035A000762F652F542F432F322F2227B85031F713
:1035B000BF9127C01B2EBF91BB27220F331F441F73
:1035C000551F661F771F881F991F881C991CEE1FA7
:1035D000FF1FCC1FDD1FAA1FBB1F8A149B04EC0515
:1035E000FD05CE05DF05A007B10748F08A189B0846
:1035F000EC09FD09CE09DF09A00BB10B21601A947B
:10360000E1F62EF49401AF01BE01CD01000C089546
:10361000002E083090F0982F872F762F652F542F8B
:10362000432F322F22270850F4CF220F331F441F7D
:10363000551F661F771F881F991F0A95B2F7002D27
:10364000089597FD1094002E083098F00850232F0D
:10365000342F452F562F672F782F892F912DF4CF98
:1036600015949795879577956795579547953795CD
:1036700027950A95AAF71124002D08952A0D3B1DC0
:103680004C1D5D1D6E1D7F1D801F911F0895002420
:10369000A7FD00942A173005400550056005700508
:1036A0008005900508950F931F93CF93DF93823089
:1036B000910510F482E090E0E0912709F09128094B
:1036C00030E020E0B0E0A0E0309799F4211531051A
:1036D00009F44AC0281B390B24303105D8F58A81FA
:1036E0009B816115710589F1FB0193838283FE0142
:1036F00011C0408151810281138148175907E0F0C0
:103700004817590799F4109761F012960C93129785
:1037100013961C933296CF01DF91CF911F910F9199
:1037200008950093270910932809F4CF2115310536
:1037300051F04217530738F0A901DB019A01BD018E
:10374000DF01F801C1CFEF01F9CF909328098093F1
:103750002709CDCFFE01E20FF31F819391932250F1
:10376000310939832883D7CF209125093091260943
:10377000232B41F420910A0230910B023093260949
:103780002093250920910802309109022115310565
:1037900041F42DB73EB740910C0250910D02241B0D
:1037A000350BE0912509F0912609E217F307A0F403
:1037B0002E1B3F0B2817390778F0AC014E5F5F4F87
:1037C0002417350748F04E0F5F1F5093260940938A
:1037D0002509819391939FCFF0E0E0E09CCFCF93B8
:1037E000DF930097E9F0FC01329713821282A091D7
:1037F0002709B0912809ED0130E020E01097A1F4ED
:1038000020813181820F931F209125093091260953
:103810002817390709F061C0F0932609E0932509BC
:10382000DF91CF910895EA01CE17DF07E8F54A81CD
:103830005B819E0141155105B1F7E901FB83EA83E4
:1038400049915991C40FD51FEC17FD0761F4808190
:1038500091810296840F951FE90199838883828163
:1038600093819B838A83F0E0E0E012968D919C9196
:1038700013970097B9F52D913C911197CD010296C0
:10388000820F931F209125093091260928173907A7
:1038900039F6309751F51092280910922709B09304
:1038A0002609A0932509BCCFD383C28340815181CF
:1038B000840F951FC817D90761F44E5F5F4F888149
:1038C0009981480F591F518340838A819B8193833B
:1038D00082832115310509F0B0CFF0932809E093D8
:1038E00027099ECFFD01DC01C0CF13821282D7CF02
:1038F000FB01DC0102C001900D9241505040D8F70D
:103900000895DC0101C06D9341505040E0F70895E7
:04391000F894FFCF59
:10391400002D31010000000000002909800000C0D2
:10392400C101C30302C2C60607C705C5C404CC0C43
:103934000DCD0FCFCE0E0ACACB0BC90908C8D818B3
:1039440019D91BDBDA1A1EDEDF1FDD1D1CDC14D4C3
:10395400D515D71716D6D21213D311D1D010F030F3
:1039640031F133F3F23236F6F737F53534F43CFC03
:10397400FD3DFF3F3EFEFA3A3BFB39F9F83828E8B3
:10398400E929EB2B2AEAEE2E2FEF2DEDEC2CE42483
:1039940025E527E7E62622E2E323E12120E0A060F3
:1039A40061A163A3A26266A6A767A56564A46CACC3
:1039B400AD6DAF6F6EAEAA6A6BAB69A9A86878B833
:1039C400B979BB7B7ABABE7E7FBF7DBDBC7CB47443
:1039D40075B577B7B67672B2B373B17170B05090F3
:1039E40091519353529296565797559594549C5C83
:1039F4005D9D5F9F9E5E5A9A9B5B99595898884833
:103A040049894B8B8A4A4E8E8F4F8D4D4C8C448402
:103A1400854587474686824243834181804000C171
:103A2400814001C0804101C0804100C1814001C08A
:103A3400804100C1814000C1814001C0804101C07A
:103A4400804100C1814000C1814001C0804100C16A
:103A5400814001C0804101C0804100C1814001C05A
:103A6400804100C1814000C1814001C0804100C14A
:103A7400814001C0804101C0804100C1814000C13A
:103A8400814001C0804101C0804100C1814001C02A
:103A9400804100C1814000C1814001C0804101C01A
:103AA400804100C1814000C1814001C0804100C10A
:103AB400814001C0804101C0804100C1814000C1FA
:103AC400814001C0804101C0804100C1814001C0EA
:103AD400804100C1814000C1814001C0804100C1DA
:103AE400814001C0804101C0804100C1814001C0CA
:103AF400804100C1814000C1814001C0804101C0BA
:103B0400804100C1814000C1814001C0804100C1A9
:103B1400814001C0804101C0804100C181407308DF
:103B2400070733076608012B0728071E0715070137
:103B34000D070A07FD06F40601E906C006DC06D1F6
:103B44000602C606C306B306A806029306DF04806F
:103B5400067106045C06590646063706040D068EF1
:103B640005E105BE05089405910562053F05082A8F
:103B74000527051405FA0404E504E204CC04B204A0
:103B8400040D070A07FD06F40601C606C306B306BC
:103B9400A806025C065906460637060494059105F4
:103BA40062053F05080D068E05E105BE05080D06F4
:103BB4008E05E105BE05080D068E05E105BE050866
:103BC4000D068E05E105BE05081A1461086314D8B4
:103BD400137FA507A10783130408FD000000004418
:103BE40003AE02DB0291030C03EA02FE02000000B2
:103BF40000E203D413FA039A049704960496048B00
:103C040004000000009D04D6139E04AC02A90243E4
:103C14004F4E464947300039373630626638633292
:103C2400373139633938636231646661656362339D
:103C340063323864303062005441534B3000524593
:083C4400533000504C43000016
:00000001FF
